:040000007AC0F0C210
:0200060033C203
:02000A0075C2BD
:0200100071C2BB
:02001600A4C084
:02001A00A3C081
:140026000000000000006B6579207374617475732065727250
:14003A00006B657920362070726573736564006B657920355F
:14004E002070726573736564006B657920342070726573739E
:140062006564006B657920332070726573736564006B6579C6
:1400760020322070726573736564006B65792031207072650D
:14008A0073736564006B65792072656C65617365640076206F
:14009E00302E302E302E310A005768696C656C6F6F702C20FA
:1400B200496E632E0A0041746D6567613820646576656C6FC2
:1400C600706D656E7420706C6174666F726D0A004C656172EF
:1400DA006E696E672052656D6F7465720A005741523A0045F5
:1400EE0052523A0000000000CFE5D4E0CDBFDEBFCE51D04060
:140102000AEA08830024E0E3F1E011E0E835F10711F0019218
:14011600FBCF0083E6E2F0E0A0E6B0E010E000E00BBFE63F1B
:14012A00F10721F0C89531960D92F9CF2DD1FFCF4A935A9397
:14013E000AC04BE952E002C04150504040304507D9F70150BD
:1401520010400030010799F7599149910895189518955D9BCE
:14016600FECF0CB90895C8D26801AA2407C0EA2DFF27EC0D88
:14017A00FD1D0081F2DFA394EA2DFF27EC0DFD1D208022209C
:14018E0091F70DE0E8DF0AE0E6DFA7C2B6D2B801269780E6A5
:1401A20090E0FE0106E010E0FA93EA939A938A93B4D2603199
:1401B600E7E27E0708F43CC020E137E28B0167D2402F842FEE
:1401CA00805D8883242F332700E117E278D2601B710B28EE5B
:1401DE0033E08B0158D2402F842F805D8983242F332708EE96
:1401F20013E069D2601B710B24E630E08B0149D2402F842FF1
:14020600805D8A8304E6142F0103601971092AE030E08B0130
:14021A003CD2402F842F805D8B830AE0142F01036019710991
:14022E00CB01C0968C836BC0683EE3E07E0768F128EE33E0F0
:140242008B0127D2402F842F805D8883242F332708EE13E083
:1402560038D2601B710B24E630E08B0118D2402F842F805D04
:14026A00898304E6142F0103601971092AE030E08B010BD2CD
:14027E00402F842F805D8A830AE0142F010360197109CB0170
:14029200C0968B833AC06436E0E07E07F0F024E630E08B0195
:1402A600F6D1402F842F805D888304E6142F0103601971094F
:1402BA002AE030E08B01E9D1402F842F805D89830AE0142F98
:1402CE00010360197109CB01C0968A8318C06A30E0E07E073F
:1402E20088F02AE030E08B01D4D1402F842F805D88830AE051
:1402F600142F010360197109CB01C096898303C0CB01C096A7
:14030A008883442708C0CE01E42FFF27E80FF91F008123DF07
:14031E004395CE01E42FFF27E80FF91F2080222081F70DE095
:1403320018DF0AE016DF2696EBC1A4D100271127249608954E
:140346009FD10027112724960895F89488E18AB986E880BD9A
:14035A008CE089B97894089591D107E211E001DF08811981F9
:14036E00FEDE2496089588D102E211E0F8DE08811981F5DE4E
:14038200249608957FD108811981EFDE2496089560E37CE3D7
:1403960041E0DBDF8FEF81BB8A988B988C988D9882BB87BBB1
:1403AA00B898BC98BD9888BB84BB85BB00E111E0D8DE02EF0B
:1403BE0010E0D5DE01EE10E0D2DE06ED10E0CFDE54D101E063
:1403D20040D184D049C0A0B2BB24BA2CAA2426B23324A228CB
:1403E600B328A094B094442371F4150126223722222009F0F2
:1403FA0037C0332009F034C009EC10E0BFDF41E02FC04130B4
:14040E0051F5B2FE05C00BEB10E0B6DF442726C0B3FE05C0DD
:140422000DEA10E0AFDF44271FC0B4FE05C00FE910E0A8DF21
:14043600442718C0B5FE05C001E910E0A1DF442711C0A4FEBF
:14044A0005C003E810E09ADF44270AC0A5FE08C005E710E009
:14045E0093DF442703C006E610E07CDFB6CF08950A921A9249
:140472002A923A924A925A926A927A928A929A920A931A938C
:140486002A933A938A939A93AA93BA93EA93FA930FB60A9299
:14049A0080912C0190912D01019690932D0180932C018C010C
:1404AE0075DE09900FBEF991E991B991A991999189913991EB
:1404C200299119910991999089907990699059904990399059
:1404D6002990199009901895F894222424BC80EF83BD8FE199
:1404EA0085BD80E888BF7894089518950A921A922A923A92E7
:1404FE004A925A926A927A928A929A920A931A932A933A93FE
:140512008A939A93AA93BA93EA93FA930FB60A924A935A93CC
:1405260080E391E0E0912E01F0912F01EE0FFF1FE80FF91F72
:14053A0026B437B431822082E0912E01F0912F01EE0FFF1F27
:14054E00E80FF91F0081118121DE80912E0190912F01019650
:1405620090932F0180932E018431E0E09E074CF08EB5887F50
:140576008EBD2224332430922F0120922E01222433243DBC20
:14058A002CBC37BC26BC88B7806288BF4EB555278EB58F7B6C
:14059E008EBD40955095407450702EB43324242A352A2EBC00
:1405B2005991499109900FBEF991E991B991A991999189913F
:1405C600399129911991099199908990799069905990499053
:1405DA00399029901990099018950A921A922A923A924A92F0
:1405EE005A926A927A928A929A920A931A932A933A938A93CC
:140602009A93AA93BA93EA93FA930FB60A9280912E01909161
:140616002F01019690932F0180932E018C01BADD09900FBEEA
:14062A00F991E991B991A99199918991399129911991099128
:14063E009990899079906990599049903990299019900990DE
:140652001895F894222433243DBC2CBC37BC26BC2FBC81E8B4
:140666008EBD013011F480E289BF80E288BF78940895F89477
:14067A0082E085BF80E48BBF789408953A932A931A930A939B
:14068E000895689401C0E894EA92FA928A93EE24FF2480E1C7
:1406A200000F111FEE1CFF1CE216F30618F0E21AF30A039556
:1406B6008A95A1F716F40E2D1F2D8991F990E99008950A9293
:1406CA001A928A939A93029FC001129F900D039F900D8C01AA
:1406DE0099918991199009900895A990B990C990D990089504
:1406F2007A936A935A934A93FA92EA92DA92CA92BA92AA92C8
:1407060008957A936A935A934A930895499159916991799109
:14071A000895AA93BA93EA93FA930A92AF81B885ED81FE81A4
:14072E000030010729F001900D9201501040F8CF0990F991AB
:0A074200E991B991A9912496089558
:00000001FF
