:0800000083C18DC5D7C207C5FD
:0200100025C504
:02001600ADC17A
:02001A00ACC177
:14002600000000000000FFFF006B657920737461747573209B
:14003A00657272006B657920352070726573736564006B65E5
:14004E007920342070726573736564006B657920332070721D
:140062006573736564006B65792032207072657373656400C5
:140076006B657920312070726573736564006B657920726586
:14008A006C656173656400466C617368206163636573732054
:14009E004661696C656400466C617368206163636573732069
:1400B2004F4B007620302E302E302E310A005768696C656C50
:1400C6006F6F702C20496E632E0A0041746D6567613820642F
:1400DA006576656C6F706D656E7420706C6174666F726D0A44
:1400EE00004C6561726E696E672052656D6F7465720A006C5A
:140102006561726E696E67206B65790073656E64696E672094
:140116006B6579005741523A004552523A0000000000000045
:14012A000000000000000000000000000000000000000000C1
:14013E000000000000000000000000000000000000000000AD
:14015200000000000000000000000000000000000000000099
:14016600000000000000000000000000000000000000000085
:14017A00000000000000000000000000000000000000000071
:14018E0000000000000000000000000000000000000000005D
:1401A200000000000000000000000000000000000000000049
:1401B600000000000000000000000000000000000000000035
:1401CA00000000000000000000000000000000000000000021
:1401DE0000000000000000000000000000000000000000000D
:1401F2000000000000000000000000000000000000000000F9
:140206000000000000000000000000000000000000000000E4
:14021A000000000000000000000000000000000000000000D0
:14022E000000000000000000000000000000000000000000BC
:140242000000000000000000000000000000000000000000A8
:14025600000000000000000000000000000000000000000094
:14026A00000000000000000000000000000000000000000080
:14027E0000000000000000000000000000000000000000006C
:14029200000000000000000000000000000000000000000058
:1402A6000000000000000000000000000000000073656E649A
:1402BA0020646F6E65002053504920646500205350492069E0
:1402CE006E00457261736520436869700045726173652053B7
:1402E2006563746F720050726F6772616D0052656164004453
:1402F6004944004D494400466C617368206275737900CFE508
:14030A00D4E0CDBFDEBFCE51D0400AEA08830024E2E4F3E097
:14031E0013E0E234F10711F00192FBCF0083E6E2F0E0A0E6CB
:14033200B0E013E000E00BBFE830F10721F0C89531960D92A6
:14034600F9CF22D2FFCF4A935A930AC04BE952E002C04150CC
:14035A00504040304507D9F7015010400030010799F7599120
:14036E0049910895189518955D9BFECF0CB90895C7D568017E
:14038200AA2407C0EA2DFF27EC0DFD1D0081F2DFA394EA2DE2
:14039600FF27EC0DFD1D2080222091F70DE0E8DF0AE0E6DF4D
:1403AA00A6C5BFD5B801269780E690E0FE0106E010E0FA9392
:1403BE00EA939A938A93C9D56031E7E27E0708F43CC020E1EE
:1403D20037E28B014ED5402F842F805D8883242F332700E1B7
:1403E60017E277D5601B710B28EE33E08B013FD5402F842FDC
:1403FA00805D8983242F332708EE13E068D5601B710B24E632
:14040E0030E08B0130D5402F842F805D8A8304E6142F0103FC
:14042200601971092AE030E08B0123D5402F842F805D8B8328
:140436000AE0142F010360197109CB01C0968C836BC0683E8C
:14044A00E3E07E0768F128EE33E08B010ED5402F842F805D66
:14045E008883242F332708EE13E037D5601B710B24E630E0CC
:140472008B01FFD4402F842F805D898304E6142F0103601962
:1404860071092AE030E08B01F2D4402F842F805D8A830AE086
:14049A00142F010360197109CB01C0968B833AC06436E0E090
:1404AE007E07F0F024E630E08B01DDD4402F842F805D888374
:1404C20004E6142F0103601971092AE030E08B01D0D4402F49
:1404D600842F805D89830AE0142F010360197109CB01C09630
:1404EA008A8318C06A30E0E07E0788F02AE030E08B01BBD48D
:1404FE00402F842F805D88830AE0142F010360197109CB01F0
:14051200C096898303C0CB01C0968883442708C0CE01E42F6E
:14052600FF27E80FF91F008123DF4395CE01E42FFF27E80F32
:14053A00F91F2080222081F70DE018DF0AE016DF2696F4C404
:14054E008BD4002711272496089586D4002711272496089574
:14056200F89488E18AB986E880BD83E389B97894089578D405
:1405760009E511E001DF08811981FEDE249608956FD404E530
:14058A0011E0F8DE08811981F5DE2496089566D408811981EC
:14059E00EFDE24960895AA92BA9258018501FFDEB990A9905F
:1405B20008951A922A920A938A931FB61A9220B2209266000B
:1405C600822D807C8093660006B30770282E202A2092660015
:1405DA0003B30470000F202A209266002094209266001990FD
:1405EE001FBE899109912990199018958BB78F778BBF08952A
:14060200F89488E085BF8BB780688BBF7894089595980895C5
:14061600959A0895AA92CA92C02EAC2C09C0F6DF0CE211E029
:14062A0090DEF4DF0CE211E08CDEAA9480E08A15A0F3C99009
:14063E00A99008954A93249720906800222009F042C084E081
:140652008093680008E411E09EDF009167001127A0DFE5D259
:1406660080E991E09B838A838FE591E0998388832091670057
:14067A00332700E010E12BD4222717FD2095332727FD3095ED
:14068E0030D3E1D2222420925E0144270CC08FE591E0E42F1C
:1406A200FF27EE0FFF1FE80FF91F0081118179DF4395483C2D
:1406B60090F3C5D18FE591E0E0915E01FF27EE0FFF1FE80F2A
:1406CA00F91F0081118188D229C080916800813011F501E09D
:1406DE009DDF98DF82E0809368000BE311E055DF222420922D
:1406F2005E0144270DC08FE591E0E42FFF27EE0FFF1FE80F2D
:14070600F91F22243324318220824395483C88F381E080938A
:14071A00EF0281D203C0222420926800249649910895259777
:14072E0088E78C837ED2C7D2AED202E0B5D2ABD20AE010E010
:140742006AD381E090E09B838A83CE0104969983888300E0FA
:1407560010EA20E030E00DD322242C8281E090E09B838A83B5
:14076A00CE0104969983888300E010EA20E030E0BAD26BD238
:14077E008C81883711F401E001C000272596089524976EEC60
:1407920070E041E0E5DE8FEF81BB8A988E988F9882BB93988E
:1407A60087BBB898B998BA98BC9888BBC59884BBA29885BB5D
:1407BA0009E211E0DFDD0BE011E0DCDD0AEF10E0D9DD0FEE62
:1407CE0010E0D6DD03E022DFAADFA02E002321F00FED10E019
:1407E200C8DE15C10BEC10E0C4DE11C1E2DE442309F0A4C0A8
:1407F60080916800823059F483E0809368002090EF022220B6
:14080A00E1F700E117E29DDD01DF80916800833009F070C079
:14081E00F0D1FBD120905E01222089F0AA240CC08FE591E0F0
:14083200EA2DFF27EE0FFF1FE80FF91F00811181B0DEA39473
:140846008A2D883C88F3AA2413C08FE591E02A2C3324220C47
:14085A00331C280E391EF101208031808FEF9FEF2C014218D8
:14086E00530851824082A3948A2D883C70F48FE591E0EA2D74
:14088200FF27EE0FFF1FE80FF91F208031802220F1F6332045
:14089600E1F6CBD1009167001127BBD280E991E09B838A8319
:1408AA008FE591E09983888320916700332700E010E10DD30B
:1408BE00222717FD2095332727FD309556D2C3D120905E0106
:1408D200222089F0AA240CC08FE591E0EA2DFF27EE0FFF1F80
:1408E600E80FF91F008111815ADEA3948A2D883C88F3222431
:1408FA002092680080916800853021F487DE222420926800C8
:14090E00A0906800AA2021F08A2D813009F079C020906600B2
:14092200332426223722222009F071C0332009F06EC00EEBEA
:1409360010E02FDE41E069C0413009F063C02090660020FEA5
:14094A0009C022242092670000EB10E020DE74DE442759C0C2
:14095E002090660021FE09C081E08093670002EA10E013DEDF
:1409720067DE44274CC02090660022FE09C082E080936700DA
:1409860004E910E006DE5ADE44273FC02090660026FE09C0F7
:14099A0083E08093670006E810E0F9DD4DDE442732C0209080
:1409AE00660027FE09C084E08093670008E710E0ECDD40DE3D
:1409C200442725C02090660023FE17C080916800813029F47C
:1409D6001FDE2224209268000CC020906800222029F414DE7B
:1409EA0081E08093680003C022242092680044270AC08091B4
:1409FE0068008F3F31F401E009DE03C009E610E0B2DDEECED5
:140A1200249608951895AA92A02EAA2029F085B58F7C85BD58
:140A2600F5DD04C085B5806185BDF2DDA990089585B5887FE3
:140A3A0085BD85B58F7C85BD0895F894222424BC88E683BDE2
:140A4E0089E185BD88B7806888BF789408950A921A922A92CD
:140A62003A924A925A926A927A928A929A920A931A932A9395
:140A76003A938A939A93AA93BA93EA93FA930FB60A92AA9224
:140A8A0080915E018F5F80935E01482E8FE591E0E42DFF27F6
:140A9E00EE0FFF1FE80FF91F20803180222011F4332081F0BE
:140AB200842D883C68F48FE591E0E42DFF27EE0FFF1FE80F31
:140AC600F91F208031803DBC2CBC08C086D0B0DF85E08093AD
:140ADA00680000EF12E05BDD12E000915E01DFD1A02E95DFB3
:140AEE00A99009900FBEF991E991B991A991999189913991BF
:140B0200299119910991999089907990699059904990399012
:140B160029901990099018950A921A922A923A924A925A928B
:140B2A006A927A928A929A920A931A932A933A938A939A9349
:140B3E00AA93BA93EA93FA930FB60A924A932090EF022220EE
:140B520029F059D022242092EF0220C080915E01883C30F030
:140B66004CD057D08FEF809368001FC08FE591E0E0915E01AB
:140B7A00FF27EE0FFF1FE80FF91F2CB43DB4318220822224AB
:140B8E0033243DBC2CBC80915E018F5F80935E0145B785B713
:140BA2008E7F85BF4095417025B6242A25BE499109900FBE1C
:140BB600F991E991B991A99199918991399129911991099197
:140BCA0099908990799069905990499039902990199009904D
:140BDE0018950FC0F89489B7846089BF88B7846088BF1DBD4B
:140BF2000CBD22242FBC84E08EBD789408958EB5887F8EBD08
:140C06000895222433243DBC2CBC2FBC84E08EBD08958BB746
:140C1A008F7B8BBF0895F89482E085BF8BB780648BBF789427
:140C2E00089502E013E0B1DC81E58DB908950FB9779BFECFC3
:140C4200089522242FB8779BFECF0FB108950FB1089581E1D9
:140C56008DB90AEF12E09DCCA99806E0ECDFA99A089557D1F6
:140C6A004FEF5FEF06C011D0A02E00FD02C000270BC01A01A9
:140C7E00415050402220A9F7332099F707E313E072DC01E070
:140C920047C1AA92A99805E0D0DFD3DFA02EA99AA99008959C
:140CA600AA92A02EA99800E5C6DFA99AA99801E0C2DF0A2D28
:140CBA00C0DFA99AD4DFA9900895AA92A99800E9B8DF002797
:140CCE00B6DF0027B4DF0027B2DFB5DFB4DFA02EA99A03E3ED
:140CE20013E059DC0FE213E056DCA9900895BAD01CD1688586
:140CF60079854A855B850AE213E04BDC0C811D814EDC8A0157
:140D0A004CDCA99803E095DF2C803D804E805F801201442484
:140D1E005524022D8CDF88E090E00C811D812E813F818A931F
:140D320006D183DF0C8181DF17C083DFFB0100836F5F7F4F33
:140D460081E090E0A0E0B0E02C803D804E805F80280E391E15
:140D5A004A1E5B1E2C823D824E825F824150504040304507A9
:140D6E0031F7A99AE1D02496089576D0D8D0688579854A8556
:140D82005B8502E213E007DC0C811D810ADCFB0100811127FD
:140D960006DC8A0104DC35C05FDFA99802E04BDF2C803D8013
:140DAA004E805F80120144245524022D42DF88E090E00C81DF
:140DBE001D812E813F818A93BCD039DF0C8137DFFB01008133
:140DD20034DFA99A6F5F7F4F46DF002311F001E017C081E0B9
:140DE60090E0A0E0B0E02C803D804E805F80280E391E4A1E6E
:140DFA005B1E2C823D824E825F82415050404030450709F078
:140E0E00C7CF002791D0249608957AD0680105E113E0BBDB39
:140E22001DDF8C2D8F708295A82ED694C794D694C794D69427
:140E3600C794D694C794A99800E2FDDE0C2DFBDE0A2DF9DE6A
:140E4A000027F7DEA99A0BDF52C00AE013E09FDB01DFA998E1
:140E5E0007ECEDDEA99A01CF3A932A931A930A930895689442
:140E720001C0E894EA92FA928A93EE24FF2480E1000F111F35
:140E8600EE1CFF1CE216F30618F0E21AF30A03958A95A1F7F2
:140E9A0016F40E2D1F2D8991F990E9900895689401C0E894C1
:140EAE002A93FA92EA92FF24EE2420E1000FFF1CEE1CE1160A
:140EC20010F0E11A03952A95B9F70EF40E2DE990F990299121
:140ED60008950A921A928A939A93029FC001129F900D039F87
:140EEA00900D8C0199918991199009900895A990B990C990CC
:140EFE00D99008957A936A935A934A93FA92EA92DA92CA9236
:140F1200BA92AA9208955A934A93BA92AA920895A990B99035
:140F26004991599108957A936A935A934A9308954991599121
:140F3A006991799108950F920990002031F036952795179554
:140F4E0007950A94F8CF0F900895AA93BA93EA93FA930A9222
:140F6200AF81B885ED81FE810030010729F001900D9201504F
:120F76001040F8CF0990F991E991B991A99124960895DA
:00000001FF
