:040000003DC040C2FD
:0200060083C1B4
:02000A00C5C16E
:02001000C1C16C
:0200160067C0C1
:02001A0066C0BE
:140026000000000000007620302E302E302E310A00576869B3
:14003A006C656C6F6F702C20496E632E0A0041746D6567613A
:14004E003820646576656C6F706D656E7420706C6174666FFD
:14006200726D0A004C6561726E696E672052656D6F74657273
:140076000A0000000000CFE5D4E0CDBFDEBFCE51D0400AEAB8
:14008A0008830024E6EBF0E010E0EE3DF10711F00192FBCFA1
:14009E000083E6E2F0E0A0E6B0E010E000E00BBFEC37F10768
:1400B20021F0C89531960D92F9CF0CD1FFCF4A935A930AC05F
:1400C6004BE952E002C04150504040304507D9F701501040B0
:1400DA000030010799F7599149910895189518955D9BFECFCA
:1400EE000CB908954DD26801AA2407C0EA2DFF27EC0DFD1D2F
:140102000081F2DFA394EA2DFF27EC0DFD1D2080222091F7A6
:140116000DE0E8DF0AE0E6DF2CC23BD2B801269780E690E02B
:14012A00FE0106E010E0FA93EA939A938A9339D26031E7E233
:14013E007E0708F43CC020E137E28B01ECD1402F842F805DCE
:140152008883242F332700E117E2FDD1601B710B28EE33E019
:140166008B01DDD1402F842F805D8983242F332708EE13E0AA
:14017A00EED1601B710B24E630E08B01CED1402F842F805D77
:14018E008A8304E6142F0103601971092AE030E08B01C1D1F4
:1401A200402F842F805D8B830AE0142F010360197109CB014C
:1401B600C0968C836BC0683EE3E07E0768F128EE33E08B01A9
:1401CA00ACD1402F842F805D8883242F332708EE13E0BDD176
:1401DE00601B710B24E630E08B019DD1402F842F805D8983F7
:1401F20004E6142F0103601971092AE030E08B0190D1402F5F
:14020600842F805D8A830AE0142F010360197109CB01C09601
:14021A008B833AC06436E0E07E07F0F024E630E08B017BD117
:14022E00402F842F805D888304E6142F0103601971092AE084
:1402420030E08B016ED1402F842F805D89830AE0142F010391
:1402560060197109CB01C0968A8318C06A30E0E07E0788F043
:14026A002AE030E08B0159D1402F842F805D88830AE0142F79
:14027E00010360197109CB01C096898303C0CB01C096888357
:14029200442708C0CE01E42FFF27E80FF91F008123DF4395B3
:1402A600CE01E42FFF27E80FF91F2080222081F70DE018DFEF
:1402BA000AE016DF269670C1F89488E18AB986E880BD8CE015
:1402CE0089B97894089508958BEF87BB8FEF88BB8EEF84BB5B
:1402E2008FEF85BB81BB82BBEBDF00EA10E000DF02E810E074
:1402F600FDDE01E710E0FADE06E610E0F7DE06D1F6D03AD011
:14030A00FFCF08950A921A922A923A924A925A926A927A92D4
:14031E008A929A920A931A932A933A938A939A93AA93BA93DB
:14033200EA93FA930FB60A928091B2009091B30001969093FB
:14034600B3008093B2008C01E8DE09900FBEF991E991B99124
:14035A00A991999189913991299119910991999089907990FE
:14036E0069905990499039902990199009901895F89422247D
:1403820024BC80EF83BD8FE185BD80E888BF78940895189521
:140396000A921A922A923A924A925A926A927A928A929A926B
:1403AA000A931A932A933A938A939A93AA93BA93EA93FA938D
:1403BE000FB60A924A935A9386EB90E0E091B400F091B500C4
:1403D200EE0FFF1FE80FF91F26B437B431822082E091B400AE
:1403E600F091B500EE0FFF1FE80FF91F0081118194DE80910D
:1403FA00B4009091B50001969093B5008093B4008431E0E0BA
:14040E009E074CF08EB5887F8EBD222433243092B50020929E
:14042200B400222433243DBC2CBC37BC26BC88B7806288BF57
:140436004EB555278EB58F7B8EBD40955095407450702EB48B
:14044A003324242A352A2EBC5991499109900FBEF991E99182
:14045E00B991A99199918991399129911991099199908990B8
:140472007990699059904990399029901990099018950A92A5
:140486001A922A923A924A925A926A927A928A929A920A9379
:14049A001A932A933A938A939A93AA93BA93EA93FA930FB674
:1404AE000A928091B4009091B50001969093B5008093B400CD
:1404C2008C012DDE09900FBEF991E991B991A991999189915C
:1404D600399129911991099199908990799069905990499044
:1404EA0039902990199009901895F894222433243DBC2CBC83
:1404FE0037BC26BC2FBC81E88EBD80E289BF88BF78940895DC
:14051200F89482E085BF80E48BBF78940895689401C0E89413
:14052600EA92FA928A93EE24FF2480E1000F111FEE1CFF1CA2
:14053A00E216F30618F0E21AF30A03958A95A1F716F40E2D27
:14054E001F2D8991F990E99008950A921A928A939A93029F61
:14056200C001129F900D039F900D8C01999189911990099024
:140576000895A990B990C990D99008957A936A935A934A931F
:14058A00FA92EA92DA92CA92BA92AA9208957A936A935A9371
:14059E004A93089549915991699179910895AA93BA93EA9363
:1405B200FA930A92AF81B885ED81FE810030010729F00190D0
:1405C6000D9201501040F8CF0990F991E991B991A99124963F
:0205DA00089582
:00000001FF
