:080000007FC0EAC2CBC158C267
:02000A0093C29F
:0200100060C2CC
:02001600A9C07F
:02001A00A8C07C
:140026000000000000006B6579207374617475732065727250
:14003A00006B657920362070726573736564006B657920355F
:14004E002070726573736564006B657920342070726573739E
:140062006564006B657920332070726573736564006B6579C6
:1400760020322070726573736564006B65792031207072650D
:14008A0073736564006B65792072656C65617365640076206F
:14009E00302E302E302E310A005768696C656C6F6F702C20FA
:1400B200496E632E0A0041746D6567613820646576656C6FC2
:1400C600706D656E7420706C6174666F726D0A004C656172EF
:1400DA006E696E672052656D6F7465720A005741523A0045F5
:1400EE0052523A0000005431206F766572666C6F7700CFE553
:14010200D4E0CDBFDEBFCE51D0400AEA08830024EAE3F1E09C
:1401160012E0E230F10711F00192FBCF0083E6E2F0E0A0E6DA
:14012A00B0E011E000E00BBFE030F10721F0C89531960D92BA
:14013E00F9CF2FD1FFCF4A935A930AC04BE952E002C04150CA
:14015200504040304507D9F7015010400030010799F759912A
:1401660049910895189518955D9BFECF0CB90895CDD2680185
:14017A00AA2407C0EA2DFF27EC0DFD1D0081F2DFA394EA2DEC
:14018E00FF27EC0DFD1D2080222091F70DE0E8DF0AE0E6DF57
:1401A200ACC2BBD2B801269780E690E0FE0106E010E0FA93A0
:1401B600EA939A938A93B9D26031E7E27E0708F43CC020E10B
:1401CA0037E28B016CD2402F842F805D8883242F332700E1A6
:1401DE0017E27DD2601B710B28EE33E08B015DD2402F842FC8
:1401F200805D8983242F332708EE13E06ED2601B710B24E639
:1402060030E08B014ED2402F842F805D8A8304E6142F0103EB
:14021A00601971092AE030E08B0141D2402F842F805D8B8317
:14022E000AE0142F010360197109CB01C0968C836BC0683E96
:14024200E3E07E0768F128EE33E08B012CD2402F842F805D55
:140256008883242F332708EE13E03DD2601B710B24E630E0D3
:14026A008B011DD2402F842F805D898304E6142F0103601950
:14027E0071092AE030E08B0110D2402F842F805D8A830AE074
:14029200142F010360197109CB01C0968B833AC06436E0E09A
:1402A6007E07F0F024E630E08B01FBD1402F842F805D888363
:1402BA0004E6142F0103601971092AE030E08B01EED1402F38
:1402CE00842F805D89830AE0142F010360197109CB01C0963A
:1402E2008A8318C06A30E0E07E0788F02AE030E08B01D9D17C
:1402F600402F842F805D88830AE0142F010360197109CB01FA
:14030A00C096898303C0CB01C0968883442708C0CE01E42F78
:14031E00FF27E80FF91F008123DF4395CE01E42FFF27E80F3C
:14033200F91F2080222081F70DE018DF0AE016DF2696F0C115
:14034600A9D10027112724960895A4D1002711272496089548
:14035A00F89488E18AB986E880BD8CE089B97894089596D1EE
:14036E0007E211E001DF08811981FEDE249608958DD102E229
:1403820011E0F8DE08811981F5DE2496089584D108811981DB
:14039600EFDE249608951895089541E0DBDF8FEF81BB8A982E
:1403AA008B988C988D9882BB87BBB898BC98BD9888BB84BBD9
:1403BE0085BB00E111E0D8DE02EF10E0D5DE01EE10E0D2DE40
:1403D20006ED10E0CFDE23C02224332430922D0120922C0138
:1403E60052D100E117E2ABDE38D120902C0130902D01222067
:1403FA0011F4332081F044270CC08AE391E0E42FFF27EE0FDB
:14040E00FF1FE80FF91F00811181C5DE4395443690F3DCCF77
:14042200A0B2BB24BA2CAA2426B23324A228B328A094B09495
:14043600442371F4150124223522222009F037C0332009F0B5
:14044A0034C009EC10E09FDF41E02FC0413051F5B2FE05C00B
:14045E000BEB10E096DF442726C0B3FE05C00DEA10E08FDF13
:1404720044271FC0B4FE05C00FE910E088DF442718C0B5FE70
:1404860005C001E910E081DF442711C0A4FE05C003E810E0E5
:14049A007ADF44270AC0A5FE08C005E710E073DF442703C0F9
:1404AE0006E610E05CDFB6CF08951895F894222424BC8DE92C
:1404C20083BD89E185BD88B7806888BF789408950A921A92DB
:1404D6002A923A924A925A926A927A928A929A920A931A9328
:1404EA002A933A938A939A93AA93BA93EA93FA930FB60A9235
:1404FE000EE211E039DE09900FBEF991E991B991A9919991DA
:140512008991399129911991099199908990799069905990C6
:140526004990399029901990099018951A922A923A920A93A6
:14053A001A938A939A93AA93EA93FA931FB61A9280912C01B0
:14054E0090912D018436E0E09E0724F08EB5887F8EBD2EC094
:140562008AE391E0E0912C01F0912D01EE0FFF1FE80FF91F30
:1405760026B437B43182208280912C0190912D010196909310
:14058A002D0180932C01222433243DBC2CBC37BC26BC0EB5D9
:14059E0011278EB58F7B8EBD00951095007410702EB4332412
:1405B200202A312A2EBC88B7806288BF19901FBEF991E991B4
:1405C600A991999189911991099139902990199018950A92EB
:1405DA001A922A923A924A925A926A927A928A929A920A9324
:1405EE001A932A933A938A939A93AA93BA93EA93FA930FB61F
:140602000A9231D08BB78F7B8BBF09900FBEF991E991B991FD
:14061600A9919991899139912991199109919990899079903F
:14062A0069905990499039902990199009901895F89489B7C4
:14063E00846089BF88B7846088BF1DBD0CBD22242FBC84E0DA
:140652008EBD789408958EB5887F8EBD08958EB5887F8EBDD9
:140666000895F894222433243DBC2CBC37BC26BC2FBC84ECA9
:14067A008EBD89B7806289BF88B7806288BF78940895F8941A
:14068E0082E085BF80E48BBF789408953A932A931A930A9387
:1406A2000895689401C0E894EA92FA928A93EE24FF2480E1B3
:1406B600000F111FEE1CFF1CE216F30618F0E21AF30A039542
:1406CA008A95A1F716F40E2D1F2D8991F990E99008950A927F
:1406DE001A928A939A93029FC001129F900D039F900D8C0196
:1406F20099918991199009900895A990B990C990D9900895F0
:140706007A936A935A934A93FA92EA92DA92CA92BA92AA92B3
:14071A0008957A936A935A934A9308954991599169917991F5
:14072E000895AA93BA93EA93FA930A92AF81B885ED81FE8190
:140742000030010729F001900D9201501040F8CF0990F99197
:0A075600E991B991A9912496089544
:00000001FF
